{
  "contractName": "DetailAdder",
  "abi": [
    {
      "inputs": [
        {
          "internalType": "address",
          "name": "_creatorAddr",
          "type": "address"
        },
        {
          "internalType": "address",
          "name": "_uniqueid",
          "type": "address"
        },
        {
          "internalType": "bytes32",
          "name": "_description",
          "type": "bytes32"
        },
        {
          "internalType": "uint256",
          "name": "_count",
          "type": "uint256"
        },
        {
          "internalType": "address",
          "name": "_uniqueaddresslinkerAddr",
          "type": "address"
        },
        {
          "internalType": "address",
          "name": "_senderAddr",
          "type": "address"
        }
      ],
      "stateMutability": "nonpayable",
      "type": "constructor"
    },
    {
      "anonymous": false,
      "inputs": [
        {
          "indexed": true,
          "internalType": "address",
          "name": "UniqueID",
          "type": "address"
        },
        {
          "indexed": true,
          "internalType": "address",
          "name": "Uniqueaddresslinker",
          "type": "address"
        },
        {
          "indexed": true,
          "internalType": "address",
          "name": "Sender",
          "type": "address"
        },
        {
          "indexed": false,
          "internalType": "uint256",
          "name": "UniqueaddresslinkerType",
          "type": "uint256"
        },
        {
          "indexed": false,
          "internalType": "uint256",
          "name": "Status",
          "type": "uint256"
        }
      ],
      "name": "PayloadUpdate",
      "type": "event"
    },
    {
      "inputs": [],
      "name": "getVerifiedDetailAdders",
      "outputs": [
        {
          "internalType": "address",
          "name": "",
          "type": "address"
        },
        {
          "internalType": "bytes32",
          "name": "",
          "type": "bytes32"
        },
        {
          "internalType": "uint256",
          "name": "",
          "type": "uint256"
        },
        {
          "internalType": "address",
          "name": "",
          "type": "address"
        },
        {
          "internalType": "address",
          "name": "",
          "type": "address"
        },
        {
          "internalType": "address",
          "name": "",
          "type": "address"
        },
        {
          "internalType": "address",
          "name": "",
          "type": "address"
        }
      ],
      "stateMutability": "view",
      "type": "function"
    },
    {
      "inputs": [],
      "name": "getDetailAdderStatus",
      "outputs": [
        {
          "internalType": "uint256",
          "name": "",
          "type": "uint256"
        }
      ],
      "stateMutability": "view",
      "type": "function"
    },
    {
      "inputs": [
        {
          "internalType": "address",
          "name": "addr",
          "type": "address"
        }
      ],
      "name": "updateSenderAddress",
      "outputs": [],
      "stateMutability": "nonpayable",
      "type": "function"
    },
    {
      "inputs": [
        {
          "internalType": "address",
          "name": "_uniqueaddresslinkerAddr",
          "type": "address"
        }
      ],
      "name": "pickBundle",
      "outputs": [],
      "stateMutability": "nonpayable",
      "type": "function"
    },
    {
      "inputs": [
        {
          "internalType": "address",
          "name": "_senderAddr",
          "type": "address"
        }
      ],
      "name": "receivedBundle",
      "outputs": [],
      "stateMutability": "nonpayable",
      "type": "function"
    }
  ],
  "bytecode": "0x608060405234801561001057600080fd5b506040516111d33803806111d383398101604081905261002f91610100565b600080546001600160a01b03199081166001600160a01b0389811691821784556001805484168a831617905560028890556003879055600480548416878316179055600580548416918616919091179055600680549092161760ff60a01b19169055604051829061009f906100f3565b6100a99190610173565b604051809103906000f0801580156100c5573d6000803e3d6000fd5b50600880546001600160a01b0319166001600160a01b03929092169190911790555061019f95505050505050565b610b748061065f83390190565b60008060008060008060c08789031215610118578182fd5b865161012381610187565b602088015190965061013481610187565b809550506040870151935060608701519250608087015161015481610187565b60a088015190925061016581610187565b809150509295509295509295565b6001600160a01b0391909116815260200190565b6001600160a01b038116811461019c57600080fd5b50565b6104b1806101ae6000396000f3fe608060405234801561001057600080fd5b50600436106100575760003560e01c806352b999681461005c578063638e9a3d146100715780636b099dca14610084578063754b9a70146100a257806380723520146100b5575b600080fd5b61006f61006a3660046102e8565b6100d0565b005b61006f61007f3660046102e8565b6101ab565b61008c610271565b6040516100999190610472565b60405180910390f35b61006f6100b03660046102e8565b610291565b6100bd6102b3565b6040516100999796959493929190610316565b6005546001600160a01b038281169116146101065760405162461bcd60e51b81526004016100fd90610398565b60405180910390fd5b6001600654600160a01b900460ff16600281111561012057fe5b1461013d5760405162461bcd60e51b81526004016100fd90610365565b6006805460ff60a01b1916600160a11b179055600554600454600180546040516001600160a01b039485169493841693909116917f7e89c4b1a4e2b51aae84eb1f90e8a34cb792ece5ac5cb63db4830c891220b28d916101a09190600290610357565b60405180910390a450565b6004546001600160a01b038281169116146101d85760405162461bcd60e51b81526004016100fd906103eb565b6000600654600160a01b900460ff1660028111156101f257fe5b1461020f5760405162461bcd60e51b81526004016100fd9061043b565b6006805460ff60a01b1916600160a01b179055600554600454600180546040516001600160a01b039485169493841693909116917f7e89c4b1a4e2b51aae84eb1f90e8a34cb792ece5ac5cb63db4830c891220b28d916101a091908190610357565b600654600090600160a01b900460ff16600281111561028c57fe5b905090565b600580546001600160a01b0319166001600160a01b0392909216919091179055565b6001546002546003546006546004546005546008546001600160a01b0396871697959694959385169492831693918316921690565b6000602082840312156102f9578081fd5b81356001600160a01b038116811461030f578182fd5b9392505050565b6001600160a01b03978816815260208101969096526040860194909452918516606085015284166080840152831660a083015290911660c082015260e00190565b918252602082015260400190565b602080825260199082015278141c9bd91d58dd081b9bdd081c1a58dad959081d5c081e595d603a1b604082015260600190565b60208082526033908201527f4f6e6c792053656e646572206f6620746865207061636b6167652063616e20726040820152726563656965766520746865207061636b61676560681b606082015260800190565b60208082526030908201527f4f6e6c79207472616e73706f72746572206f6620746865207061636b6167652060408201526f63616e207069636b207061636b61676560801b606082015260800190565b6020808252601d908201527f5061636b616765206d75737420626520617420526563697069656e742e000000604082015260600190565b9081526020019056fea26469706673582212209249d076f296b1db1e9e1749daead03437474f4dd721c5ddab3adcfb99e4d47764736f6c634300060600336080604052600060025534801561001557600080fd5b50604051610b74380380610b7483398101604081905261003491610059565b600080546001600160a01b0319166001600160a01b0392909216919091179055610087565b60006020828403121561006a578081fd5b81516001600160a01b0381168114610080578182fd5b9392505050565b610ade806100966000396000f3fe608060405234801561001057600080fd5b506004361061004c5760003560e01c806327506f53146100515780633626a3681461006f57806378ce1365146100845780639ace38c214610099575b600080fd5b6100596100bf565b60405161006691906108c3565b60405180910390f35b61008261007d3660046107bb565b6102c7565b005b61008c61050b565b6040516100669190610a87565b6100ac6100a7366004610853565b610511565b6040516100669796959493929190610990565b600254606090818167ffffffffffffffff811180156100dd57600080fd5b5060405190808252806020026020018201604052801561011757816020015b61010461066a565b8152602001906001900390816100fc5790505b50905060005b828110156102bf57600081815260016020818152604092839020835160e08101855281548152818401546001600160a01b0390811682850152600280840154909116828701526003830154606083015260048301805487516101009782161597909702600019011691909104601f81018590048502860185019096528585529094919360808601939092908301828280156101f95780601f106101ce576101008083540402835291602001916101f9565b820191906000526020600020905b8154815290600101906020018083116101dc57829003601f168201915b505050918352505060058201805460408051602060026001851615610100026000190190941693909304601f810184900484028201840190925281815293820193929183018282801561028d5780601f106102625761010080835404028352916020019161028d565b820191906000526020600020905b81548152906001019060200180831161027057829003601f168201915b505050505081526020016006820154815250508282815181106102ac57fe5b602090810291909101015260010161011d565b509150505b90565b60025442906103a6576040805160e0810182528881526001600160a01b038089166020808401918252898316848601908152606085018a8152608086018a815260a087018a905260c08701899052600280546000908152600180875299902088518155955198860180549988166001600160a01b03199a8b1617905592519285018054939096169290971691909117909355915160038201559251805192939261037792600485019201906106a5565b5060a082015180516103939160058401916020909101906106a5565b5060c082015181600601559050506104b5565b6002546000190160009081526001602052604090205484146103e35760405162461bcd60e51b81526004016103da90610a50565b60405180910390fd5b6040805160e0810182528881526001600160a01b038089166020808401918252898316848601908152606085018a8152608086018a815260a087018a905260c08701899052600280546000908152600180875299902088518155955198860180549988166001600160a01b03199a8b1617905592519285018054939096169290971691909117909355915160038201559251805192939261048a92600485019201906106a5565b5060a082015180516104a69160058401916020909101906106a5565b5060c082015181600601559050505b6002805460010190556040517f30d01d358fb0899fe4d50947b2e9301c952d9eed09b14c7ecdcbeed4434557c4906104fa90899089908990899087908a908a906109f0565b60405180910390a150505050505050565b60025481565b60016020818152600092835260409283902080548184015460028084015460038501546004860180548a516101009a8216159a909a02600019011693909304601f810188900488028901880190995288885293976001600160a01b039384169793909116959394938301828280156105ca5780601f1061059f576101008083540402835291602001916105ca565b820191906000526020600020905b8154815290600101906020018083116105ad57829003601f168201915b5050505060058301805460408051602060026001851615610100026000190190941693909304601f810184900484028201840190925281815294959493509083018282801561065a5780601f1061062f5761010080835404028352916020019161065a565b820191906000526020600020905b81548152906001019060200180831161063d57829003601f168201915b5050505050908060060154905087565b6040805160e08101825260008082526020820181905291810182905260608082018390526080820181905260a082015260c081019190915290565b828054600181600116156101000203166002900490600052602060002090601f016020900481019282601f106106e657805160ff1916838001178555610713565b82800160010185558215610713579182015b828111156107135782518255916020019190600101906106f8565b5061071f929150610723565b5090565b6102c491905b8082111561071f5760008155600101610729565b600082601f83011261074d578081fd5b813567ffffffffffffffff80821115610764578283fd5b604051601f8301601f191681016020018281118282101715610784578485fd5b60405282815292508284830160200186101561079f57600080fd5b8260208601602083013760006020848301015250505092915050565b60008060008060008060c087890312156107d3578182fd5b8635955060208701356107e581610a90565b945060408701356107f581610a90565b935060608701359250608087013567ffffffffffffffff80821115610818578384fd5b6108248a838b0161073d565b935060a0890135915080821115610839578283fd5b5061084689828a0161073d565b9150509295509295509295565b600060208284031215610864578081fd5b5035919050565b6001600160a01b03169052565b60008151808452815b8181101561089d57602081850181015186830182015201610881565b818111156108ae5782602083870101525b50601f01601f19169290920160200192915050565b60208082528251828201819052600091906040908185019080840286018301878501865b8381101561098257603f19898403018552815160e081518552888201516109108a87018261086b565b50878201516109218987018261086b565b506060808301518187015250608080830151828288015261094483880182610878565b91505060a0915081830151868203838801526109608282610878565b60c09485015197909401969096525050948701949250908601906001016108e7565b509098975050505050505050565b8781526001600160a01b038781166020830152861660408201526060810185905260e0608082018190526000906109c990830186610878565b82810360a08401526109db8186610878565b9150508260c083015298975050505050505050565b8781526001600160a01b03878116602083015286166040820152606081018590526080810184905260e060a08201819052600090610a3090830185610878565b82810360c0840152610a428185610878565b9a9950505050505050505050565b6020808252601b908201527f5472616e73616374696f6e206572726f72206f63637572726564210000000000604082015260600190565b90815260200190565b6001600160a01b0381168114610aa557600080fd5b5056fea264697066735822122027f5c5971153096749971ce0db362f7b719b6d0a3eb80fe7fdbecdfe4bdcba9e64736f6c63430006060033",
  "immutableReferences": {},
  "source": "pragma solidity ^0.6.6;\npragma experimental ABIEncoderV2;\n\nimport './Transactions.sol';\n\ncontract DetailAdder {\n    \n    address Admin;\n\n    enum bundleStatus { atCreator, gathered, sent }\n    \n    event PayloadUpdate(\n        address indexed UniqueID,\n        address indexed Uniqueaddresslinker,\n        address indexed Sender,\n        uint UniqueaddresslinkerType,\n        uint Status\n    );\n\n    address uniqueid;\n    bytes32 description;\n    uint count;\n    address uniqueaddresslinker;\n    address sender;\n    address recipient;\n    bundleStatus status;\n    bytes32 bundleReceiverDescription;\n    address txnContractAddress;\n    \n    constructor (\n        address _creatorAddr,\n        address _uniqueid,\n        bytes32 _description,\n        uint _count,\n        address _uniqueaddresslinkerAddr,\n        address _senderAddr\n    ) public {\n        Admin = _creatorAddr;\n        uniqueid = _uniqueid;\n        description = _description;\n        count = _count;\n        uniqueaddresslinker = _uniqueaddresslinkerAddr;\n        sender = _senderAddr;\n        recipient = _creatorAddr;\n        status = bundleStatus(0);\n        Transactions txnContract = new Transactions(_senderAddr);\n        txnContractAddress = address(txnContract);\n    }\n\n\n    function getVerifiedDetailAdders () public view returns(\n        address,\n        bytes32,\n        uint,\n        address,\n        address,\n        address,\n        address\n    ) {\n        return (uniqueid, description, count, recipient, uniqueaddresslinker, sender, txnContractAddress);\n    }\n\n\n\n    function getDetailAdderStatus() public view returns(\n        uint\n    ) {\n        return uint(status);\n    }\n\n    function updateSenderAddress(address addr) public {\n        sender = addr;\n    }\n\n    function pickBundle(\n        address _uniqueaddresslinkerAddr\n    ) public {\n        require(\n            _uniqueaddresslinkerAddr == uniqueaddresslinker,\n            \"Only uniqueaddresslinker of the bundle can pick bundle\"\n        );\n        require(\n            status == bundleStatus(0),\n            \"Bundle must be at Recipient.\"\n        );\n        status = bundleStatus(1);\n        emit PayloadUpdate(uniqueid, uniqueaddresslinker, sender, 1, 1);\n    }\n\n    \n    function receivedBundle(\n        address _senderAddr\n    ) public {\n\n        require(\n            _senderAddr == sender,\n            \"Only Sender of the bundle can receieve the bundle\"\n        );\n\n        require(\n            status == bundleStatus(1),\n            \"Unique not gathered up yet\"\n        );\n        status = bundleStatus(2);\n        emit PayloadUpdate(uniqueid, uniqueaddresslinker, sender, 1, 2);\n    }\n}",
  "sourcePath": "C:\\Users\\lenovo\\Documents\\Account-Verifier1\\Account-Verifier1\\Account-Verifier\\testing\\DetailAdder.sol",
  "compiler": {
    "name": "solc",
    "version": "0.6.6+commit.6c089d02.Emscripten.clang"
  },
  "schemaVersion": "3.4.16",
  "updatedAt": "2024-04-06T20:46:46.392Z",
  "devdoc": {
    "methods": {}
  },
  "userdoc": {
    "methods": {}
  }
}