{
  "contractName": "VerificationChain",
  "abi": [
    {
      "inputs": [],
      "stateMutability": "nonpayable",
      "type": "constructor"
    },
    {
      "anonymous": false,
      "inputs": [
        {
          "indexed": true,
          "internalType": "address",
          "name": "_address",
          "type": "address"
        },
        {
          "indexed": false,
          "internalType": "bytes32",
          "name": "name",
          "type": "bytes32"
        }
      ],
      "name": "UserRegister",
      "type": "event"
    },
    {
      "anonymous": false,
      "inputs": [
        {
          "indexed": false,
          "internalType": "address",
          "name": "client",
          "type": "address"
        },
        {
          "indexed": true,
          "internalType": "address",
          "name": "initiator",
          "type": "address"
        },
        {
          "indexed": false,
          "internalType": "address",
          "name": "bundleAddr",
          "type": "address"
        },
        {
          "indexed": false,
          "internalType": "bytes",
          "name": "signature",
          "type": "bytes"
        },
        {
          "indexed": true,
          "internalType": "uint256",
          "name": "timestamp",
          "type": "uint256"
        }
      ],
      "name": "buyEvent",
      "type": "event"
    },
    {
      "anonymous": false,
      "inputs": [
        {
          "indexed": true,
          "internalType": "address",
          "name": "client",
          "type": "address"
        },
        {
          "indexed": false,
          "internalType": "address",
          "name": "initiator",
          "type": "address"
        },
        {
          "indexed": false,
          "internalType": "address",
          "name": "bundleAddr",
          "type": "address"
        },
        {
          "indexed": false,
          "internalType": "bytes",
          "name": "signature",
          "type": "bytes"
        },
        {
          "indexed": true,
          "internalType": "uint256",
          "name": "timestamp",
          "type": "uint256"
        }
      ],
      "name": "receivedEvent",
      "type": "event"
    },
    {
      "anonymous": false,
      "inputs": [
        {
          "indexed": true,
          "internalType": "address",
          "name": "client",
          "type": "address"
        },
        {
          "indexed": false,
          "internalType": "address",
          "name": "initiator",
          "type": "address"
        },
        {
          "indexed": false,
          "internalType": "address",
          "name": "bundleAddr",
          "type": "address"
        },
        {
          "indexed": false,
          "internalType": "bytes",
          "name": "signature",
          "type": "bytes"
        },
        {
          "indexed": true,
          "internalType": "uint256",
          "name": "timestamp",
          "type": "uint256"
        }
      ],
      "name": "respondEvent",
      "type": "event"
    },
    {
      "anonymous": false,
      "inputs": [
        {
          "indexed": false,
          "internalType": "address",
          "name": "initiator",
          "type": "address"
        },
        {
          "indexed": false,
          "internalType": "address",
          "name": "client",
          "type": "address"
        },
        {
          "indexed": true,
          "internalType": "address",
          "name": "bundleAddr",
          "type": "address"
        },
        {
          "indexed": false,
          "internalType": "bytes",
          "name": "signature",
          "type": "bytes"
        },
        {
          "indexed": true,
          "internalType": "uint256",
          "name": "timestamp",
          "type": "uint256"
        }
      ],
      "name": "sendEvent",
      "type": "event"
    },
    {
      "inputs": [
        {
          "internalType": "address",
          "name": "",
          "type": "address"
        },
        {
          "internalType": "uint256",
          "name": "",
          "type": "uint256"
        }
      ],
      "name": "VerifyCOtoC",
      "outputs": [
        {
          "internalType": "address",
          "name": "",
          "type": "address"
        }
      ],
      "stateMutability": "view",
      "type": "function",
      "constant": true
    },
    {
      "inputs": [
        {
          "internalType": "address",
          "name": "",
          "type": "address"
        }
      ],
      "name": "VerifyCOtoCTxContract",
      "outputs": [
        {
          "internalType": "address",
          "name": "",
          "type": "address"
        }
      ],
      "stateMutability": "view",
      "type": "function",
      "constant": true
    },
    {
      "inputs": [
        {
          "internalType": "address",
          "name": "",
          "type": "address"
        },
        {
          "internalType": "uint256",
          "name": "",
          "type": "uint256"
        }
      ],
      "name": "VerifyBtoCO",
      "outputs": [
        {
          "internalType": "address",
          "name": "",
          "type": "address"
        }
      ],
      "stateMutability": "view",
      "type": "function",
      "constant": true
    },
    {
      "inputs": [
        {
          "internalType": "address",
          "name": "",
          "type": "address"
        }
      ],
      "name": "VerifyBtoCOTxContract",
      "outputs": [
        {
          "internalType": "address",
          "name": "",
          "type": "address"
        }
      ],
      "stateMutability": "view",
      "type": "function",
      "constant": true
    },
    {
      "inputs": [
        {
          "internalType": "address",
          "name": "",
          "type": "address"
        },
        {
          "internalType": "uint256",
          "name": "",
          "type": "uint256"
        }
      ],
      "name": "VerifiesAtConnector",
      "outputs": [
        {
          "internalType": "address",
          "name": "",
          "type": "address"
        }
      ],
      "stateMutability": "view",
      "type": "function",
      "constant": true
    },
    {
      "inputs": [
        {
          "internalType": "address",
          "name": "",
          "type": "address"
        },
        {
          "internalType": "uint256",
          "name": "",
          "type": "uint256"
        }
      ],
      "name": "VerifiesAtBanker",
      "outputs": [
        {
          "internalType": "address",
          "name": "",
          "type": "address"
        }
      ],
      "stateMutability": "view",
      "type": "function",
      "constant": true
    },
    {
      "inputs": [
        {
          "internalType": "address",
          "name": "",
          "type": "address"
        },
        {
          "internalType": "uint256",
          "name": "",
          "type": "uint256"
        }
      ],
      "name": "recipientDetailAdders",
      "outputs": [
        {
          "internalType": "address",
          "name": "",
          "type": "address"
        }
      ],
      "stateMutability": "view",
      "type": "function",
      "constant": true
    },
    {
      "inputs": [
        {
          "internalType": "address",
          "name": "",
          "type": "address"
        },
        {
          "internalType": "uint256",
          "name": "",
          "type": "uint256"
        }
      ],
      "name": "senderVerifies",
      "outputs": [
        {
          "internalType": "address",
          "name": "",
          "type": "address"
        }
      ],
      "stateMutability": "view",
      "type": "function",
      "constant": true
    },
    {
      "inputs": [
        {
          "internalType": "address",
          "name": "",
          "type": "address"
        },
        {
          "internalType": "uint256",
          "name": "",
          "type": "uint256"
        }
      ],
      "name": "senderDetailAdders",
      "outputs": [
        {
          "internalType": "address",
          "name": "",
          "type": "address"
        }
      ],
      "stateMutability": "view",
      "type": "function",
      "constant": true
    },
    {
      "inputs": [
        {
          "internalType": "address",
          "name": "",
          "type": "address"
        }
      ],
      "name": "userInfo",
      "outputs": [
        {
          "internalType": "bytes32",
          "name": "name",
          "type": "bytes32"
        },
        {
          "internalType": "enum VerificationChain.roles",
          "name": "role",
          "type": "uint8"
        },
        {
          "internalType": "address",
          "name": "userAddr",
          "type": "address"
        }
      ],
      "stateMutability": "view",
      "type": "function",
      "constant": true
    },
    {
      "inputs": [
        {
          "internalType": "address",
          "name": "client",
          "type": "address"
        },
        {
          "internalType": "address",
          "name": "initiator",
          "type": "address"
        },
        {
          "internalType": "address",
          "name": "bundleAddr",
          "type": "address"
        },
        {
          "internalType": "bytes",
          "name": "signature",
          "type": "bytes"
        }
      ],
      "name": "requestUnique",
      "outputs": [],
      "stateMutability": "nonpayable",
      "type": "function"
    },
    {
      "inputs": [
        {
          "internalType": "address",
          "name": "client",
          "type": "address"
        },
        {
          "internalType": "address",
          "name": "initiator",
          "type": "address"
        },
        {
          "internalType": "address",
          "name": "bundleAddr",
          "type": "address"
        },
        {
          "internalType": "bytes",
          "name": "signature",
          "type": "bytes"
        }
      ],
      "name": "respondToEntity",
      "outputs": [],
      "stateMutability": "nonpayable",
      "type": "function"
    },
    {
      "inputs": [
        {
          "internalType": "address",
          "name": "client",
          "type": "address"
        },
        {
          "internalType": "address",
          "name": "initiator",
          "type": "address"
        },
        {
          "internalType": "address",
          "name": "bundleAddr",
          "type": "address"
        },
        {
          "internalType": "bytes",
          "name": "signature",
          "type": "bytes"
        }
      ],
      "name": "sendBundleToEntity",
      "outputs": [],
      "stateMutability": "nonpayable",
      "type": "function"
    },
    {
      "inputs": [
        {
          "internalType": "bytes32",
          "name": "name",
          "type": "bytes32"
        },
        {
          "internalType": "string[]",
          "name": "loc",
          "type": "string[]"
        },
        {
          "internalType": "uint256",
          "name": "role",
          "type": "uint256"
        },
        {
          "internalType": "address",
          "name": "_userAddr",
          "type": "address"
        }
      ],
      "name": "registerUser",
      "outputs": [],
      "stateMutability": "nonpayable",
      "type": "function"
    },
    {
      "inputs": [
        {
          "internalType": "uint256",
          "name": "_role",
          "type": "uint256"
        },
        {
          "internalType": "address",
          "name": "_addr",
          "type": "address"
        }
      ],
      "name": "changeUserRole",
      "outputs": [
        {
          "internalType": "string",
          "name": "",
          "type": "string"
        }
      ],
      "stateMutability": "nonpayable",
      "type": "function"
    },
    {
      "inputs": [
        {
          "internalType": "address",
          "name": "_address",
          "type": "address"
        }
      ],
      "name": "getUserInfo",
      "outputs": [
        {
          "components": [
            {
              "internalType": "bytes32",
              "name": "name",
              "type": "bytes32"
            },
            {
              "internalType": "string[]",
              "name": "userLoc",
              "type": "string[]"
            },
            {
              "internalType": "enum VerificationChain.roles",
              "name": "role",
              "type": "uint8"
            },
            {
              "internalType": "address",
              "name": "userAddr",
              "type": "address"
            }
          ],
          "internalType": "struct VerificationChain.userData",
          "name": "",
          "type": "tuple"
        }
      ],
      "stateMutability": "view",
      "type": "function",
      "constant": true
    },
    {
      "inputs": [
        {
          "internalType": "bytes32",
          "name": "_description",
          "type": "bytes32"
        },
        {
          "internalType": "uint256",
          "name": "_count",
          "type": "uint256"
        },
        {
          "internalType": "address",
          "name": "_uniqueaddresslinkerAddr",
          "type": "address"
        },
        {
          "internalType": "address",
          "name": "_senderAddr",
          "type": "address"
        }
      ],
      "name": "createDetailAdderBundle",
      "outputs": [
        {
          "internalType": "address",
          "name": "",
          "type": "address"
        }
      ],
      "stateMutability": "nonpayable",
      "type": "function"
    },
    {
      "inputs": [],
      "name": "getNoOfBundlesOfRecipient",
      "outputs": [
        {
          "internalType": "uint256",
          "name": "",
          "type": "uint256"
        }
      ],
      "stateMutability": "view",
      "type": "function",
      "constant": true
    },
    {
      "inputs": [],
      "name": "getAllBundles",
      "outputs": [
        {
          "internalType": "address[]",
          "name": "",
          "type": "address[]"
        }
      ],
      "stateMutability": "view",
      "type": "function",
      "constant": true
    },
    {
      "inputs": [
        {
          "internalType": "address",
          "name": "_addr",
          "type": "address"
        },
        {
          "internalType": "uint256",
          "name": "uniqueaddresslinkertype",
          "type": "uint256"
        },
        {
          "internalType": "address",
          "name": "cid",
          "type": "address"
        }
      ],
      "name": "uniqueaddresslinkerHandleBundle",
      "outputs": [],
      "stateMutability": "nonpayable",
      "type": "function"
    },
    {
      "inputs": [
        {
          "internalType": "address",
          "name": "_addr",
          "type": "address"
        },
        {
          "internalType": "address",
          "name": "_senderAddress",
          "type": "address"
        },
        {
          "internalType": "address",
          "name": "_initiatorAddr",
          "type": "address"
        },
        {
          "internalType": "bytes",
          "name": "signature",
          "type": "bytes"
        }
      ],
      "name": "senderReceivedBundle",
      "outputs": [],
      "stateMutability": "nonpayable",
      "type": "function"
    },
    {
      "inputs": [],
      "name": "getAllDetailAdders",
      "outputs": [
        {
          "internalType": "address[]",
          "name": "",
          "type": "address[]"
        }
      ],
      "stateMutability": "view",
      "type": "function",
      "constant": true
    },
    {
      "inputs": [
        {
          "internalType": "address",
          "name": "_senderAddr",
          "type": "address"
        },
        {
          "internalType": "bytes32",
          "name": "_description",
          "type": "bytes32"
        },
        {
          "internalType": "address[]",
          "name": "_detailAddr",
          "type": "address[]"
        },
        {
          "internalType": "uint256",
          "name": "_count",
          "type": "uint256"
        },
        {
          "internalType": "address[]",
          "name": "_uniqueaddresslinkerAddr",
          "type": "address[]"
        }
      ],
      "name": "senderCreatesVerify",
      "outputs": [],
      "stateMutability": "nonpayable",
      "type": "function"
    },
    {
      "inputs": [],
      "name": "getAllCreatedVerifies",
      "outputs": [
        {
          "internalType": "address[]",
          "name": "",
          "type": "address[]"
        }
      ],
      "stateMutability": "view",
      "type": "function",
      "constant": true
    },
    {
      "inputs": [
        {
          "internalType": "address",
          "name": "_address",
          "type": "address"
        },
        {
          "internalType": "address",
          "name": "_initiatorAddr",
          "type": "address"
        },
        {
          "internalType": "bytes",
          "name": "signature",
          "type": "bytes"
        }
      ],
      "name": "bankerReceivedVerify",
      "outputs": [],
      "stateMutability": "nonpayable",
      "type": "function"
    },
    {
      "inputs": [
        {
          "internalType": "address",
          "name": "_address",
          "type": "address"
        },
        {
          "internalType": "address",
          "name": "uniqueaddresslinker",
          "type": "address"
        },
        {
          "internalType": "address",
          "name": "receiver",
          "type": "address"
        }
      ],
      "name": "carryVerifyBtoCO",
      "outputs": [],
      "stateMutability": "nonpayable",
      "type": "function"
    },
    {
      "inputs": [
        {
          "internalType": "uint256",
          "name": "index",
          "type": "uint256"
        }
      ],
      "name": "getBunchIdByIndexWD",
      "outputs": [
        {
          "internalType": "address",
          "name": "bundleID",
          "type": "address"
        }
      ],
      "stateMutability": "view",
      "type": "function",
      "constant": true
    },
    {
      "inputs": [
        {
          "internalType": "address",
          "name": "_address",
          "type": "address"
        }
      ],
      "name": "getSubContractWD",
      "outputs": [
        {
          "internalType": "address",
          "name": "SubContractWD",
          "type": "address"
        }
      ],
      "stateMutability": "view",
      "type": "function",
      "constant": true
    },
    {
      "inputs": [],
      "name": "getAllVerifiesAtBanker",
      "outputs": [
        {
          "internalType": "address[]",
          "name": "",
          "type": "address[]"
        }
      ],
      "stateMutability": "view",
      "type": "function",
      "constant": true
    },
    {
      "inputs": [
        {
          "internalType": "address",
          "name": "_address",
          "type": "address"
        },
        {
          "internalType": "address",
          "name": "cid",
          "type": "address"
        },
        {
          "internalType": "address",
          "name": "_initiatorAddr",
          "type": "address"
        },
        {
          "internalType": "bytes",
          "name": "signature",
          "type": "bytes"
        }
      ],
      "name": "connectorReceivedVerify",
      "outputs": [],
      "stateMutability": "nonpayable",
      "type": "function"
    },
    {
      "inputs": [
        {
          "internalType": "address",
          "name": "_address",
          "type": "address"
        },
        {
          "internalType": "address",
          "name": "uniqueaddresslinker",
          "type": "address"
        },
        {
          "internalType": "address",
          "name": "receiver",
          "type": "address"
        }
      ],
      "name": "connectorCarryVerifytoCustomer",
      "outputs": [],
      "stateMutability": "nonpayable",
      "type": "function"
    },
    {
      "inputs": [],
      "name": "getBunchesCountDC",
      "outputs": [
        {
          "internalType": "uint256",
          "name": "count",
          "type": "uint256"
        }
      ],
      "stateMutability": "view",
      "type": "function",
      "constant": true
    },
    {
      "inputs": [
        {
          "internalType": "uint256",
          "name": "index",
          "type": "uint256"
        }
      ],
      "name": "getBunchIdByIndexDC",
      "outputs": [
        {
          "internalType": "address",
          "name": "bundleID",
          "type": "address"
        }
      ],
      "stateMutability": "view",
      "type": "function",
      "constant": true
    },
    {
      "inputs": [
        {
          "internalType": "address",
          "name": "_address",
          "type": "address"
        }
      ],
      "name": "getSubContractDC",
      "outputs": [
        {
          "internalType": "address",
          "name": "SubContractDP",
          "type": "address"
        }
      ],
      "stateMutability": "view",
      "type": "function",
      "constant": true
    },
    {
      "inputs": [],
      "name": "getAllVerifiesAtConnector",
      "outputs": [
        {
          "internalType": "address[]",
          "name": "",
          "type": "address[]"
        }
      ],
      "stateMutability": "view",
      "type": "function",
      "constant": true
    },
    {
      "inputs": [
        {
          "internalType": "address",
          "name": "p",
          "type": "address"
        },
        {
          "internalType": "bytes32",
          "name": "hash",
          "type": "bytes32"
        },
        {
          "internalType": "uint8",
          "name": "v",
          "type": "uint8"
        },
        {
          "internalType": "bytes32",
          "name": "r",
          "type": "bytes32"
        },
        {
          "internalType": "bytes32",
          "name": "s",
          "type": "bytes32"
        }
      ],
      "name": "verify",
      "outputs": [
        {
          "internalType": "bool",
          "name": "",
          "type": "bool"
        }
      ],
      "stateMutability": "pure",
      "type": "function",
      "constant": true
    }
  ],
  "bytecode": "0x608060405234801561001057600080fd5b50600080546001600160a01b03191633179055615ba9806100326000396000f3fe60806040523480156200001157600080fd5b5060043610620002085760003560e01c806391009786116200011d578063e0cf92fe11620000ab578063e0cf92fe14620004bc578063e3938b7014620004d3578063f06822d814620004dd578063fac0992d14620004f4578063fae234fa14620004fe578063fc7e01f31462000508578063fd302c35146200051f578063ff2b065a1462000536578063fff3d964146200054d5762000208565b80639100978614620003e95780639af035a3146200040f578063a205a1231462000426578063b0fc028d1462000430578063b8b16ca31462000447578063bba07261146200045e578063be7ef9c01462000475578063cd55152e146200048c578063d06f7b5514620004a55762000208565b8063412afbaf116200019b578063412afbaf14620002fc578063506535f31462000313578063522e9aef146200033957806362c1fe3914620003505780636386c1c71462000367578063755a452f146200038d578063798a826f14620003a45780637a0689f014620003bb5780638dfa742d14620003d25762000208565b8063050e70db146200020d578063052b5f87146200023c5780630a421f0f1462000253578063164bcd5b146200026c5780631959a00214620002835780631f90ddaf14620002ab5780633475901614620002c45780633668669a14620002db578063381cb0dc14620002e5575b600080fd5b620002246200021e36600462001f7c565b62000564565b6040516200023391906200229c565b60405180910390f35b620002246200024d36600462001f7c565b6200059a565b6200025d620005b4565b604051620002339190620023b5565b620002246200027d36600462002182565b62000689565b6200029a6200029436600462001d39565b6200070f565b6040516200023393929190620023de565b620002c2620002bc36600462002077565b6200073b565b005b62000224620002d536600462001d39565b62000840565b6200025d6200085e565b620002c2620002f636600462001e2c565b6200092b565b620002246200030d36600462001f7c565b62000a67565b6200032a6200032436600462001f22565b62000a81565b604051620002339190620023ca565b620002c26200034a36600462001db0565b62000af4565b620002246200036136600462001d39565b62000bbf565b6200037e6200037836600462001d39565b62000bdd565b604051620002339190620025fe565b620002246200039e36600462001f7c565b62000d32565b62000224620003b536600462001d39565b62000d4c565b620002c2620003cc36600462001db0565b62000d67565b62000224620003e336600462001f7c565b6200102e565b62000400620003fa3660046200219b565b62001048565b6040516200023391906200242d565b620002246200042036600462002182565b620010d7565b6200025d62001139565b620002246200044136600462001d39565b62001206565b620002c26200045836600462001db0565b62001221565b620002246200046f36600462001f7c565b62001261565b620002c26200048636600462001faa565b6200127b565b620004966200143a565b604051620002339190620023d5565b620002c2620004b636600462001db0565b62001494565b620002c2620004cd36600462001db0565b620014d4565b6200025d62001514565b620002c2620004ee36600462001d5f565b620015e1565b6200025d6200167c565b6200049662001749565b620002246200051936600462002134565b6200175c565b620002246200053036600462001f7c565b6200185c565b620002c26200054736600462001d5f565b62001876565b620002c26200055e36600462001e93565b620019e2565b600660205281600052604060002081815481106200057e57fe5b6000918252602090912001546001600160a01b03169150829050565b600260205281600052604060002081815481106200057e57fe5b3360009081526002602052604090205460609081816001600160401b0381118015620005df57600080fd5b506040519080825280602002602001820160405280156200060a578160200160208202803683370190505b50905060005b8281101562000681573360009081526002602052604090208054829081106200063557fe5b9060005260206000200160009054906101000a90046001600160a01b03168282815181106200066057fe5b6001600160a01b039092166020928302919091019091015260010162000610565b509150505b90565b600060053360009081526001602052604090206002015460ff166006811115620006af57fe5b14620006d85760405162461bcd60e51b8152600401620006cf9062002442565b60405180910390fd5b336000908152600960205260409020805483908110620006f457fe5b6000918252602090912001546001600160a01b031692915050565b6001602052600090815260409020805460029091015460ff81169061010090046001600160a01b031683565b6000546001600160a01b031633146200075357600080fd5b6001600160a01b03811660009081526001602081815260409092208681558551620007879391909201919086019062001a69565b508160068111156200079557fe5b6001600160a01b03821660009081526001602081905260409091206002018054909160ff1990911690836006811115620007cb57fe5b02179055506001600160a01b038116600081815260016020526040908190206002018054610100600160a81b0319166101008402179055517f33a7170f028b1e4f5ba321064a00ed820856a920c7f9c6636fbcf385427b1b0f9062000832908790620023d5565b60405180910390a250505050565b6001600160a01b039081166000908152600760205260409020541690565b3360009081526005602052604090205460609081816001600160401b03811180156200088957600080fd5b50604051908082528060200260200182016040528015620008b4578160200160208202803683370190505b50905060005b828110156200068157336000908152600560205260409020805482908110620008df57fe5b9060005260206000200160009054906101000a90046001600160a01b03168282815181106200090a57fe5b6001600160a01b0390921660209283029190910190910152600101620008ba565b60043360009081526001602052604090206002015460ff1660068111156200094f57fe5b146200096f5760405162461bcd60e51b8152600401620006cf90620024f3565b6040516307fb74db60e21b81526000906001600160a01b03851690631fedd36c90620009a09033906004016200229c565b602060405180830381600087803b158015620009bb57600080fd5b505af1158015620009d0573d6000803e3d6000fd5b505050506040513d601f19601f82011682018060405250810190620009f691906200205e565b3360008181526005602090815260408083208054600181018255908452919092200180546001600160a01b0319166001600160a01b03891617905551919250429160008051602062005b548339815191529062000a59908790899088906200232f565b60405180910390a350505050565b600560205281600052604060002081815481106200057e57fe5b6000856001600160a01b03166001868686866040516000815260200160405260405162000ab294939291906200240f565b6020604051602081039080840390855afa15801562000ad5573d6000803e3d6000fd5b505050602060405103516001600160a01b031614905095945050505050565b604051630a57332d60e31b81526001600160a01b038516906352b999689062000b229086906004016200229c565b600060405180830381600087803b15801562000b3d57600080fd5b505af115801562000b52573d6000803e3d6000fd5b505050506001600160a01b0383811660009081526003602090815260408083208054600181018255908452919092200180546001600160a01b03191692871692909217909155514290339060008051602062005b548339815191529062000a59908690899087906200232f565b6001600160a01b039081166000908152600a60205260409020541690565b62000be762001acd565b6001600160a01b0382166000908152600160208181526040808420815160808101835281548152938101805483518186028101860190945280845294959194868501949192909184015b8282101562000ce25760008481526020908190208301805460408051601f600260001961010060018716150201909416939093049283018590048502810185019091528181529283018282801562000ccd5780601f1062000ca15761010080835404028352916020019162000ccd565b820191906000526020600020905b81548152906001019060200180831162000caf57829003601f168201915b50505050508152602001906001019062000c31565b50505090825250600282015460209091019060ff16600681111562000d0357fe5b600681111562000d0f57fe5b81526002919091015461010090046001600160a01b031660209091015292915050565b600460205281600052604060002081815481106200057e57fe5b600a602052600090815260409020546001600160a01b031681565b60053360009081526001602052604090206002015460ff16600681111562000d8b57fe5b14801562000e195750836001600160a01b031663abb428a66040518163ffffffff1660e01b815260040160606040518083038186803b15801562000dce57600080fd5b505afa15801562000de3573d6000803e3d6000fd5b505050506040513d601f19601f8201168201806040525081019062000e09919062001fe5565b602001516001600160a01b031633145b62000e385760405162461bcd60e51b8152600401620006cf906200248a565b6040516307fb74db60e21b81526000906001600160a01b03861690631fedd36c9062000e699033906004016200229c565b602060405180830381600087803b15801562000e8457600080fd5b505af115801562000e99573d6000803e3d6000fd5b505050506040513d601f19601f8201168201806040525081019062000ebf91906200205e565b9050806002141562000ff057336000908152600860209081526040808320805460018101825590845291832090910180546001600160a01b0319166001600160a01b03891690811790915581516355da145360e11b81529151909163abb428a6916004808301926060929190829003018186803b15801562000f4057600080fd5b505afa15801562000f55573d6000803e3d6000fd5b505050506040513d601f19601f8201168201806040525081019062000f7b919062001fe5565b516001600160a01b03161462000ff05760405163d7dcbe3b60e01b81526001600160a01b0385169063d7dcbe3b9062000fbb9088903390600401620022ea565b600060405180830381600087803b15801562000fd657600080fd5b505af115801562000feb573d6000803e3d6000fd5b505050505b42336001600160a01b031660008051602062005b548339815191528588866040516200101f939291906200232f565b60405180910390a35050505050565b600860205281600052604060002081815481106200057e57fe5b6000546060906001600160a01b031633146200106357600080fd5b8260068111156200107057fe5b6001600160a01b03831660009081526001602081905260409091206002018054909160ff1990911690836006811115620010a657fe5b02179055505060408051808201909152600d81526c526f6c6520557064617465642160981b60208201525b92915050565b600060043360009081526001602052604090206002015460ff166006811115620010fd57fe5b146200111d5760405162461bcd60e51b8152600401620006cf9062002539565b336000908152600660205260409020805483908110620006f457fe5b3360009081526004602052604090205460609081816001600160401b03811180156200116457600080fd5b506040519080825280602002602001820160405280156200118f578160200160208202803683370190505b50905060005b828110156200068157336000908152600460205260409020805482908110620011ba57fe5b9060005260206000200160009054906101000a90046001600160a01b0316828281518110620011e557fe5b6001600160a01b039092166020928302919091019091015260010162001195565b6007602052600090815260409020546001600160a01b031681565b42836001600160a01b03167f22561ca0666e99052dd8231a6c5c337204ed5658c357aa6afcd53c207acfac6786858560405162000a59939291906200232f565b600360205281600052604060002081815481106200057e57fe5b60023360009081526001602052604090206002015460ff1660068111156200129f57fe5b14620012bf5760405162461bcd60e51b8152600401620006cf9062002580565b60008211620012e25760405162461bcd60e51b8152600401620006cf90620025c7565b8160011415620013545760405163638e9a3d60e01b81526001600160a01b0384169063638e9a3d906200131a9033906004016200229c565b600060405180830381600087803b1580156200133557600080fd5b505af11580156200134a573d6000803e3d6000fd5b5050505062001435565b81600214156200138c5760405163ac42a41560e01b81526001600160a01b0384169063ac42a415906200131a9033906004016200229c565b8160031415620013c657604051630887851b60e31b81526001600160a01b0382169063443c28d8906200131a9086903390600401620022ea565b8160041415620014355760405163298abd8d60e11b81526001600160a01b038216906353157b1a90620014009086903390600401620022ea565b600060405180830381600087803b1580156200141b57600080fd5b505af115801562001430573d6000803e3d6000fd5b505050505b505050565b600060053360009081526001602052604090206002015460ff1660068111156200146057fe5b14620014805760405162461bcd60e51b8152600401620006cf9062002442565b503360009081526009602052604090205490565b42826001600160a01b03167f31f87de04fd141167b8131be7a8ccb2bac63361a15671c96d90c39ddc9ef909d85878560405162000a59939291906200232f565b42846001600160a01b03167f9151271dfe612a18bf915ee1609e6f94f62fd775c704a0ae2ef091519f0c9b3985858560405162000a59939291906200232f565b3360009081526008602052604090205460609081816001600160401b03811180156200153f57600080fd5b506040519080825280602002602001820160405280156200156a578160200160208202803683370190505b50905060005b8281101562000681573360009081526008602052604090208054829081106200159557fe5b9060005260206000200160009054906101000a90046001600160a01b0316828281518110620015c057fe5b6001600160a01b039092166020928302919091019091015260010162001570565b600083338484604051620015f59062001af5565b62001604949392919062002304565b604051809103906000f08015801562001621573d6000803e3d6000fd5b5033600090815260066020908152604080832080546001810182559084528284200180546001600160a01b039586166001600160a01b0319918216811790925598909416835260079091529020805490951617909355505050565b3360009081526003602052604090205460609081816001600160401b0381118015620016a757600080fd5b50604051908082528060200260200182016040528015620016d2578160200160208202803683370190505b50905060005b828110156200068157336000908152600360205260409020805482908110620016fd57fe5b9060005260206000200160009054906101000a90046001600160a01b03168282815181106200172857fe5b6001600160a01b0390921660209283029190910190910152600101620016d8565b3360009081526002602052604090205490565b6000803360023342604051602001620017779291906200225c565b60408051601f198184030181529082905262001793916200227e565b602060405180830381855afa158015620017b1573d6000803e3d6000fd5b5050506040513d601f19601f82011682018060405250810190620017d691906200205e565b60601c87878787604051620017eb9062001b03565b620017fc96959493929190620022b0565b604051809103906000f08015801562001819573d6000803e3d6000fd5b503360009081526002602090815260408220805460018101825590835291200180546001600160a01b0319166001600160a01b0383161790559695505050505050565b600960205281600052604060002081815481106200057e57fe5b60053360009081526001602052604090206002015460ff1660068111156200189a57fe5b148015620019285750826001600160a01b031663abb428a66040518163ffffffff1660e01b815260040160606040518083038186803b158015620018dd57600080fd5b505afa158015620018f2573d6000803e3d6000fd5b505050506040513d601f19601f8201168201806040525081019062001918919062001fe5565b602001516001600160a01b031633145b620019475760405162461bcd60e51b8152600401620006cf906200248a565b6000833384846040516200195b9062001b11565b6200196a949392919062002304565b604051809103906000f08015801562001987573d6000803e3d6000fd5b5033600090815260096020908152604080832080546001810182559084528284200180546001600160a01b039586166001600160a01b03199182168117909255989094168352600a9091529020805490951617909355505050565b60008585858585604051620019f79062001b1f565b62001a0795949392919062002366565b604051809103906000f08015801562001a24573d6000803e3d6000fd5b506001600160a01b0396871660009081526004602090815260408220805460018101825590835291200180546001600160a01b03191691909716179095555050505050565b82805482825590600052602060002090810192821562001abb579160200282015b8281111562001abb578251805162001aaa91849160209091019062001b2d565b509160200191906001019062001a8a565b5062001ac992915062001bae565b5090565b6040805160808101825260008082526060602083015290918201908152600060209091015290565b6103b8806200273c83390190565b6111d38062002af483390190565b6103bc8062003cc783390190565b611ad1806200408383390190565b828054600181600116156101000203166002900490600052602060002090601f016020900481019282601f1062001b7057805160ff191683800117855562001ba0565b8280016001018555821562001ba0579182015b8281111562001ba057825182559160200191906001019062001b83565b5062001ac992915062001bd6565b6200068691905b8082111562001ac957600062001bcc828262001bf3565b5060010162001bb5565b6200068691905b8082111562001ac9576000815560010162001bdd565b50805460018160011615610100020316600290046000825580601f1062001c1b575062001c3b565b601f01602090049060005260206000209081019062001c3b919062001bd6565b50565b8035620010d18162002725565b600082601f83011262001c5c578081fd5b813562001c7362001c6d82620026c7565b620026a0565b81815291506020808301908481018184028601820187101562001c9557600080fd5b60005b8481101562001cc157813562001cae8162002725565b8452928201929082019060010162001c98565b505050505092915050565b600082601f83011262001cdd578081fd5b81356001600160401b0381111562001cf3578182fd5b62001d08601f8201601f1916602001620026a0565b915080825283602082850101111562001d2057600080fd5b8060208401602084013760009082016020015292915050565b60006020828403121562001d4b578081fd5b813562001d588162002725565b9392505050565b60008060006060848603121562001d74578182fd5b833562001d818162002725565b9250602084013562001d938162002725565b9150604084013562001da58162002725565b809150509250925092565b6000806000806080858703121562001dc6578081fd5b843562001dd38162002725565b9350602085013562001de58162002725565b9250604085013562001df78162002725565b915060608501356001600160401b0381111562001e12578182fd5b62001e208782880162001ccc565b91505092959194509250565b60008060006060848603121562001e41578283fd5b833562001e4e8162002725565b9250602084013562001e608162002725565b915060408401356001600160401b0381111562001e7b578182fd5b62001e898682870162001ccc565b9150509250925092565b600080600080600060a0868803121562001eab578081fd5b853562001eb88162002725565b94506020860135935060408601356001600160401b038082111562001edb578283fd5b62001ee989838a0162001c4b565b945060608801359350608088013591508082111562001f06578283fd5b5062001f158882890162001c4b565b9150509295509295909350565b600080600080600060a0868803121562001f3a578081fd5b853562001f478162002725565b945060208601359350604086013560ff8116811462001f64578182fd5b94979396509394606081013594506080013592915050565b6000806040838503121562001f8f578182fd5b823562001f9c8162002725565b946020939093013593505050565b60008060006060848603121562001fbf578081fd5b833562001fcc8162002725565b925060208401359150604084013562001da58162002725565b60006060828403121562001ff7578081fd5b82601f83011262002006578081fd5b620020126060620026a0565b80838560608601111562002024578384fd5b835b6003811015620020535781516200203d8162002725565b8452602093840193919091019060010162002026565b509095945050505050565b60006020828403121562002070578081fd5b5051919050565b600080600080608085870312156200208d578182fd5b843593506020808601356001600160401b03811115620020ab578384fd5b80870188601f820112620020bd578485fd5b80359150620020d062001c6d83620026c7565b82815283810190828501875b858110156200210957620020f68d88843588010162001ccc565b84529286019290860190600101620020dc565b505080975050505050506040850135915062002129866060870162001c3e565b905092959194509250565b600080600080608085870312156200214a578182fd5b84359350602085013592506040850135620021658162002725565b91506060850135620021778162002725565b939692955090935050565b60006020828403121562002194578081fd5b5035919050565b60008060408385031215620021ae578182fd5b823591506020830135620021c28162002725565b809150509250929050565b6001600160a01b03169052565b6000815180845260208085019450808401835b83811015620022145781516001600160a01b031687529582019590820190600101620021ed565b509495945050505050565b6000815180845262002239816020860160208601620026e7565b601f01601f19169290920160200192915050565b62002258816200271a565b9052565b60609290921b6bffffffffffffffffffffffff19168252601482015260340190565b6000825162002292818460208701620026e7565b9190910192915050565b6001600160a01b0391909116815260200190565b6001600160a01b0396871681529486166020860152604085019390935260608401919091528316608083015290911660a082015260c00190565b6001600160a01b0392831681529116602082015260400190565b6001600160a01b03948516815292841660208401529083166040830152909116606082015260800190565b6001600160a01b038481168252831660208201526060604082018190526000906200235d908301846200221f565b95945050505050565b600060018060a01b038716825285602083015260a060408301526200238f60a0830186620021da565b8460608401528281036080840152620023a98185620021da565b98975050505050505050565b60006020825262001d586020830184620021da565b901515815260200190565b90815260200190565b83815260608101620023f0846200271a565b60208201939093526001600160a01b0391909116604090910152919050565b93845260ff9290921660208401526040830152606082015260800190565b60006020825262001d5860208301846200221f565b60208082526028908201527f4f6e6c79204469737472696275746f722043616e2063616c6c207468697320666040820152673ab731ba34b7b71760c11b606082015260800190565b60208082526043908201527f4f6e6c79204469737472696275746f72206f722063757272656e742061646d6960408201527f6e206f66207061636b6167652063616e2063616c6c20746869732066756e637460608201526234b7b760e91b608082015260a00190565b60208082526026908201527f4f6e6c792057686f6c6573616c65722063616e2063616c6c20746869732066756040820152653731ba34b7b760d11b606082015260800190565b60208082526027908201527f4f6e6c792057686f6c6573616c65722043616e2063616c6c20746869732066756040820152663731ba34b7b71760c91b606082015260800190565b60208082526027908201527f4f6e6c79205472616e73706f727465722063616e2063616c6c207468697320666040820152663ab731ba34b7b760c91b606082015260800190565b6020808252601d908201527f5472616e73706f72746572205479706520697320696e636f7272656374000000604082015260600190565b60208082528251828201528281015160806040840152805160a084018190526000929160c0828402860181019285929187019185015b81841015620026685760bf19888603018352620026538582516200221f565b94506001939093019291850191850162002634565b50505050604085015191506200268260608501836200224d565b60608501519150620026986080850183620021cd565b949350505050565b6040518181016001600160401b0381118282101715620026bf57600080fd5b604052919050565b60006001600160401b03821115620026dd578081fd5b5060209081020190565b60005b8381101562002704578181015183820152602001620026ea565b8381111562002714576000848401525b50505050565b6007811062001c3b57fe5b6001600160a01b038116811462001c3b57600080fdfe608060405234801561001057600080fd5b506040516103b83803806103b88339818101604052608081101561003357600080fd5b50805160208201516040830151606090930151600080546001600160a01b03199081166001600160a01b03948516908117835560018054831696861696909617909555600280548216909517909455600380548516958416959095179094556004805490931691161760ff60a01b191690556103039081906100b590396000f3fe608060405234801561001057600080fd5b50600436106100415760003560e01c8063443c28d814610046578063d2f3fcc714610076578063d7dcbe3b14610090575b600080fd5b6100746004803603604081101561005c57600080fd5b506001600160a01b03813581169160200135166100be565b005b61007e610190565b60408051918252519081900360200190f35b610074600480360360408110156100a657600080fd5b506001600160a01b03813581169160200135166101b0565b6003546001600160a01b0382811691161461010a5760405162461bcd60e51b815260040180806020018281038252602f81526020018061029f602f913960400191505060405180910390fd5b6004805460ff60a01b1916600160a01b178082556002546040805163f5c0e38360e01b81526001600160a01b03938416948101949094529082166024840152519084169163f5c0e38391604480830192600092919082900301818387803b15801561017457600080fd5b505af1158015610188573d6000803e3d6000fd5b505050505050565b600454600090600160a01b900460ff1660028111156101ab57fe5b905090565b6004546001600160a01b038281169116146101fc5760405162461bcd60e51b815260040180806020018281038252603081526020018061026f6030913960400191505060405180910390fd5b600480546002919060ff60a01b1916600160a01b830217905550816001600160a01b03166393a668b7826040518263ffffffff1660e01b815260040180826001600160a01b03166001600160a01b03168152602001915050600060405180830381600087803b15801561017457600080fdfe4f6e6c79204173736f6369617465642072656365697665722063616e2063616c6c20746869732066756e6374696f6e2e4f6e6c79204173736f63696174656420736869707065722063616e2063616c6c20746869732066756e6374696f6e2ea264697066735822122007b3fd7384271c4106f88fb06ce6253eec015219343e39e6d12b1d994b8ca05a64736f6c63430006060033608060405234801561001057600080fd5b506040516111d33803806111d383398101604081905261002f91610100565b600080546001600160a01b03199081166001600160a01b0389811691821784556001805484168a831617905560028890556003879055600480548416878316179055600580548416918616919091179055600680549092161760ff60a01b19169055604051829061009f906100f3565b6100a99190610173565b604051809103906000f0801580156100c5573d6000803e3d6000fd5b50600880546001600160a01b0319166001600160a01b03929092169190911790555061019f95505050505050565b610b748061065f83390190565b60008060008060008060c08789031215610118578182fd5b865161012381610187565b602088015190965061013481610187565b809550506040870151935060608701519250608087015161015481610187565b60a088015190925061016581610187565b809150509295509295509295565b6001600160a01b0391909116815260200190565b6001600160a01b038116811461019c57600080fd5b50565b6104b1806101ae6000396000f3fe608060405234801561001057600080fd5b50600436106100575760003560e01c806352b999681461005c578063638e9a3d146100715780636b099dca14610084578063754b9a70146100a257806380723520146100b5575b600080fd5b61006f61006a3660046102e8565b6100d0565b005b61006f61007f3660046102e8565b6101ab565b61008c610271565b6040516100999190610472565b60405180910390f35b61006f6100b03660046102e8565b610291565b6100bd6102b3565b6040516100999796959493929190610316565b6005546001600160a01b038281169116146101065760405162461bcd60e51b81526004016100fd90610398565b60405180910390fd5b6001600654600160a01b900460ff16600281111561012057fe5b1461013d5760405162461bcd60e51b81526004016100fd90610365565b6006805460ff60a01b1916600160a11b179055600554600454600180546040516001600160a01b039485169493841693909116917f7e89c4b1a4e2b51aae84eb1f90e8a34cb792ece5ac5cb63db4830c891220b28d916101a09190600290610357565b60405180910390a450565b6004546001600160a01b038281169116146101d85760405162461bcd60e51b81526004016100fd906103eb565b6000600654600160a01b900460ff1660028111156101f257fe5b1461020f5760405162461bcd60e51b81526004016100fd9061043b565b6006805460ff60a01b1916600160a01b179055600554600454600180546040516001600160a01b039485169493841693909116917f7e89c4b1a4e2b51aae84eb1f90e8a34cb792ece5ac5cb63db4830c891220b28d916101a091908190610357565b600654600090600160a01b900460ff16600281111561028c57fe5b905090565b600580546001600160a01b0319166001600160a01b0392909216919091179055565b6001546002546003546006546004546005546008546001600160a01b0396871697959694959385169492831693918316921690565b6000602082840312156102f9578081fd5b81356001600160a01b038116811461030f578182fd5b9392505050565b6001600160a01b03978816815260208101969096526040860194909452918516606085015284166080840152831660a083015290911660c082015260e00190565b918252602082015260400190565b602080825260199082015278141c9bd91d58dd081b9bdd081c1a58dad959081d5c081e595d603a1b604082015260600190565b60208082526033908201527f4f6e6c792053656e646572206f6620746865207061636b6167652063616e20726040820152726563656965766520746865207061636b61676560681b606082015260800190565b60208082526030908201527f4f6e6c79207472616e73706f72746572206f6620746865207061636b6167652060408201526f63616e207069636b207061636b61676560801b606082015260800190565b6020808252601d908201527f5061636b616765206d75737420626520617420526563697069656e742e000000604082015260600190565b9081526020019056fea26469706673582212209249d076f296b1db1e9e1749daead03437474f4dd721c5ddab3adcfb99e4d47764736f6c634300060600336080604052600060025534801561001557600080fd5b50604051610b74380380610b7483398101604081905261003491610059565b600080546001600160a01b0319166001600160a01b0392909216919091179055610087565b60006020828403121561006a578081fd5b81516001600160a01b0381168114610080578182fd5b9392505050565b610ade806100966000396000f3fe608060405234801561001057600080fd5b506004361061004c5760003560e01c806327506f53146100515780633626a3681461006f57806378ce1365146100845780639ace38c214610099575b600080fd5b6100596100bf565b60405161006691906108c3565b60405180910390f35b61008261007d3660046107bb565b6102c7565b005b61008c61050b565b6040516100669190610a87565b6100ac6100a7366004610853565b610511565b6040516100669796959493929190610990565b600254606090818167ffffffffffffffff811180156100dd57600080fd5b5060405190808252806020026020018201604052801561011757816020015b61010461066a565b8152602001906001900390816100fc5790505b50905060005b828110156102bf57600081815260016020818152604092839020835160e08101855281548152818401546001600160a01b0390811682850152600280840154909116828701526003830154606083015260048301805487516101009782161597909702600019011691909104601f81018590048502860185019096528585529094919360808601939092908301828280156101f95780601f106101ce576101008083540402835291602001916101f9565b820191906000526020600020905b8154815290600101906020018083116101dc57829003601f168201915b505050918352505060058201805460408051602060026001851615610100026000190190941693909304601f810184900484028201840190925281815293820193929183018282801561028d5780601f106102625761010080835404028352916020019161028d565b820191906000526020600020905b81548152906001019060200180831161027057829003601f168201915b505050505081526020016006820154815250508282815181106102ac57fe5b602090810291909101015260010161011d565b509150505b90565b60025442906103a6576040805160e0810182528881526001600160a01b038089166020808401918252898316848601908152606085018a8152608086018a815260a087018a905260c08701899052600280546000908152600180875299902088518155955198860180549988166001600160a01b03199a8b1617905592519285018054939096169290971691909117909355915160038201559251805192939261037792600485019201906106a5565b5060a082015180516103939160058401916020909101906106a5565b5060c082015181600601559050506104b5565b6002546000190160009081526001602052604090205484146103e35760405162461bcd60e51b81526004016103da90610a50565b60405180910390fd5b6040805160e0810182528881526001600160a01b038089166020808401918252898316848601908152606085018a8152608086018a815260a087018a905260c08701899052600280546000908152600180875299902088518155955198860180549988166001600160a01b03199a8b1617905592519285018054939096169290971691909117909355915160038201559251805192939261048a92600485019201906106a5565b5060a082015180516104a69160058401916020909101906106a5565b5060c082015181600601559050505b6002805460010190556040517f30d01d358fb0899fe4d50947b2e9301c952d9eed09b14c7ecdcbeed4434557c4906104fa90899089908990899087908a908a906109f0565b60405180910390a150505050505050565b60025481565b60016020818152600092835260409283902080548184015460028084015460038501546004860180548a516101009a8216159a909a02600019011693909304601f810188900488028901880190995288885293976001600160a01b039384169793909116959394938301828280156105ca5780601f1061059f576101008083540402835291602001916105ca565b820191906000526020600020905b8154815290600101906020018083116105ad57829003601f168201915b5050505060058301805460408051602060026001851615610100026000190190941693909304601f810184900484028201840190925281815294959493509083018282801561065a5780601f1061062f5761010080835404028352916020019161065a565b820191906000526020600020905b81548152906001019060200180831161063d57829003601f168201915b5050505050908060060154905087565b6040805160e08101825260008082526020820181905291810182905260608082018390526080820181905260a082015260c081019190915290565b828054600181600116156101000203166002900490600052602060002090601f016020900481019282601f106106e657805160ff1916838001178555610713565b82800160010185558215610713579182015b828111156107135782518255916020019190600101906106f8565b5061071f929150610723565b5090565b6102c491905b8082111561071f5760008155600101610729565b600082601f83011261074d578081fd5b813567ffffffffffffffff80821115610764578283fd5b604051601f8301601f191681016020018281118282101715610784578485fd5b60405282815292508284830160200186101561079f57600080fd5b8260208601602083013760006020848301015250505092915050565b60008060008060008060c087890312156107d3578182fd5b8635955060208701356107e581610a90565b945060408701356107f581610a90565b935060608701359250608087013567ffffffffffffffff80821115610818578384fd5b6108248a838b0161073d565b935060a0890135915080821115610839578283fd5b5061084689828a0161073d565b9150509295509295509295565b600060208284031215610864578081fd5b5035919050565b6001600160a01b03169052565b60008151808452815b8181101561089d57602081850181015186830182015201610881565b818111156108ae5782602083870101525b50601f01601f19169290920160200192915050565b60208082528251828201819052600091906040908185019080840286018301878501865b8381101561098257603f19898403018552815160e081518552888201516109108a87018261086b565b50878201516109218987018261086b565b506060808301518187015250608080830151828288015261094483880182610878565b91505060a0915081830151868203838801526109608282610878565b60c09485015197909401969096525050948701949250908601906001016108e7565b509098975050505050505050565b8781526001600160a01b038781166020830152861660408201526060810185905260e0608082018190526000906109c990830186610878565b82810360a08401526109db8186610878565b9150508260c083015298975050505050505050565b8781526001600160a01b03878116602083015286166040820152606081018590526080810184905260e060a08201819052600090610a3090830185610878565b82810360c0840152610a428185610878565b9a9950505050505050505050565b6020808252601b908201527f5472616e73616374696f6e206572726f72206f63637572726564210000000000604082015260600190565b90815260200190565b6001600160a01b0381168114610aa557600080fd5b5056fea264697066735822122027f5c5971153096749971ce0db362f7b719b6d0a3eb80fe7fdbecdfe4bdcba9e64736f6c63430006060033608060405234801561001057600080fd5b506040516103bc3803806103bc8339818101604052608081101561003357600080fd5b50805160208201516040830151606090930151600080546001600160a01b03199081166001600160a01b03948516908117835560018054831696861696909617909555600280548216909517909455600380548516958416959095179094556004805490931691161760ff60a01b191690556103079081906100b590396000f3fe608060405234801561001057600080fd5b50600436106100415760003560e01c806353157b1a14610046578063c0114d0614610076578063f7addc3e14610090575b600080fd5b6100746004803603604081101561005c57600080fd5b506001600160a01b03813581169160200135166100be565b005b61007e610190565b60408051918252519081900360200190f35b610074600480360360408110156100a657600080fd5b506001600160a01b03813581169160200135166101b0565b6003546001600160a01b0382811691161461010a5760405162461bcd60e51b815260040180806020018281038252603381526020018061026f6033913960400191505060405180910390fd5b6004805460ff60a01b1916600160a01b17808255600254604080516305e3aeb160e31b81526001600160a01b039384169481019490945290821660248401525190841691632f1d758891604480830192600092919082900301818387803b15801561017457600080fd5b505af1158015610188573d6000803e3d6000fd5b505050505050565b600454600090600160a01b900460ff1660028111156101ab57fe5b905090565b6004546001600160a01b038281169116146101fc5760405162461bcd60e51b81526004018080602001828103825260308152602001806102a26030913960400191505060405180910390fd5b600480546002919060ff60a01b1916600160a01b830217905550816001600160a01b031663c8f5f189826040518263ffffffff1660e01b815260040180826001600160a01b03166001600160a01b03168152602001915050600060405180830381600087803b15801561017457600080fdfe4f6e6c79204173736f636961746564207472616e73706f727465722063616e2063616c6c20746869732066756e6374696f6e2e4f6e6c79204173736f6369617465642072656365697665722063616e2063616c6c20746869732066756e6374696f6e2ea26469706673582212201e1e19b8bbc804d0a17e4c4276497b02cebd06b1fc51b4bc3dbdcd919bfa190164736f6c6343000606003360806040523480156200001157600080fd5b5060405162001ad138038062001ad1833981810160405260a08110156200003757600080fd5b815160208301516040808501805191519395929483019291846401000000008211156200006357600080fd5b9083019060208201858111156200007957600080fd5b82518660208202830111640100000000821117156200009757600080fd5b82525081516020918201928201910280838360005b83811015620000c6578181015183820152602001620000ac565b505050509050016040526020018051906020019092919080516040519392919084640100000000821115620000fa57600080fd5b9083019060208201858111156200011057600080fd5b82518660208202830111640100000000821117156200012e57600080fd5b82525081516020918201928201910280838360005b838110156200015d57818101518382015260200162000143565b50505050919091016040525050600080546001600160a01b0389166001600160a01b03199182168117909255600480549091169091179055505060018490558251620001b190600290602086019062000268565b5060088290558051620001cc90600390602084019062000268565b50600580546001600160a01b03199081169091556006805490911690556009805460ff1916905560405160009086906200020690620002d2565b6001600160a01b03909116815260405190819003602001906000f08015801562000234573d6000803e3d6000fd5b50600980546001600160a01b0390921661010002610100600160a81b0319909216919091179055506200030a945050505050565b828054828255906000526020600020908101928215620002c0579160200282015b82811115620002c057825182546001600160a01b0319166001600160a01b0390911617825560209092019160019091019062000289565b50620002ce929150620002e0565b5090565b610b748062000f5d83390190565b6200030791905b80821115620002ce5780546001600160a01b0319168155600101620002e7565b90565b610c43806200031a6000396000f3fe608060405234801561001057600080fd5b50600436106100b45760003560e01c8063ac42a41511610071578063ac42a415146101d3578063c8f5f189146101f9578063d2f3fcc71461021f578063e002c8a514610227578063e138d4ce14610341578063f5c0e38314610367576100b4565b80631fedd36c146100b95780632f1d7588146100f157806393a668b71461012157806396991e7914610147578063aab3a9d61461016d578063abb428a614610193575b600080fd5b6100df600480360360208110156100cf57600080fd5b50356001600160a01b0316610395565b60408051918252519081900360200190f35b61011f6004803603604081101561010757600080fd5b506001600160a01b03813581169160200135166105c0565b005b61011f6004803603602081101561013757600080fd5b50356001600160a01b0316610649565b61011f6004803603602081101561015d57600080fd5b50356001600160a01b03166106b6565b61011f6004803603602081101561018357600080fd5b50356001600160a01b03166106d8565b61019b61072a565b6040518082606080838360005b838110156101c05781810151838201526020016101a8565b5050505090500191505060405180910390f35b61011f600480360360208110156101e957600080fd5b50356001600160a01b0316610765565b61011f6004803603602081101561020f57600080fd5b50356001600160a01b03166108e6565b6100df61094f565b61022f610968565b604051808a6001600160a01b03166001600160a01b031681526020018981526020018060200188815260200180602001876001600160a01b03166001600160a01b03168152602001868152602001856001600160a01b03166001600160a01b03168152602001846001600160a01b03166001600160a01b0316815260200183810383528a818151815260200191508051906020019060200280838360005b838110156102e55781810151838201526020016102cd565b50505050905001838103825288818151815260200191508051906020019060200280838360005b8381101561032457818101518382015260200161030c565b505050509050019b50505050505050505050505060405180910390f35b61011f6004803603602081101561035757600080fd5b50356001600160a01b0316610a9e565b61011f6004803603604081101561037d57600080fd5b506001600160a01b0381358116916020013516610ac0565b6005546000906001600160a01b03838116911614806103c157506006546001600160a01b038381169116145b6103fc5760405162461bcd60e51b8152600401808060200182810382526035815260200180610b6d6035913960400191505060405180910390fd5b60095460019060ff16600681111561041057fe5b101561045f576040805162461bcd60e51b8152602060048201526019602482015278141c9bd91d58dd081b9bdd081c1a58dad959081d5c081e595d603a1b604482015290519081900360640190fd5b6005546001600160a01b03838116911614801561048c5750600160095460ff16600681111561048a57fe5b145b15610510576009805460ff1916600390811790915560055481546001600160a01b03909116919060001981019081106104c157fe5b60009182526020918290200154604080516002815260039381019390935280516001600160a01b03909216923092600080516020610b4d833981519152929181900390910190a45060016105bb565b6006546001600160a01b03838116911614801561053d5750600260095460ff16600681111561053b57fe5b145b156105bb576009805460ff19166004179055600654600380546001600160a01b0390921691600019810190811061057057fe5b60009182526020918290200154604080516003815260049381019390935280516001600160a01b03909216923092600080516020610b4d833981519152929181900390910190a45060025b919050565b6006546001600160a01b0382811691161461060c5760405162461bcd60e51b8152600401808060200182810382526023815260200180610bc46023913960400191505060405180910390fd5b600780546001600160a01b0319166001600160a01b03841617905560055b6009805460ff1916600183600681111561064057fe5b02179055505050565b6006546001600160a01b038281169116146106955760405162461bcd60e51b8152600401808060200182810382526023815260200180610bc46023913960400191505060405180910390fd5b60045b6009805460ff191660018360068111156106ae57fe5b021790555050565b600680546001600160a01b0319166001600160a01b0392909216919091179055565b600380546001810182556000919091527fc2575a0e9e593c00f959f8c92f12db2869c3395a3b0502d05e2516446f71f85b0180546001600160a01b0319166001600160a01b0392909216919091179055565b610732610b2e565b50604080516060810182526005546001600160a01b03908116825260065481166020830152600754169181019190915290565b60038054600019810190811061077757fe5b6000918252602090912001546001600160a01b038281169116146107cc5760405162461bcd60e51b8152600401808060200182810382526027815260200180610be76027913960400191505060405180910390fd5b600060095460ff1660068111156107df57fe5b14610831576040805162461bcd60e51b815260206004820152601a60248201527f5061636b616765206d7573742062652061742053656e6465722e000000000000604482015290519081900360640190fd5b6005546001600160a01b031615610894576009805460ff1916600190811790915560055460408051838152602081019390935280516001600160a01b0392831693928516923092600080516020610b4d83398151915292918290030190a46108e3565b6009805460ff191660029081179091556006546040805160018152602081019390935280516001600160a01b0392831693928516923092600080516020610b4d83398151915292918290030190a45b50565b6007546001600160a01b03828116911614610948576040805162461bcd60e51b815260206004820181905260248201527f5468697320437573746f6d6572206973206e6f74204173736f6369617465642e604482015290519081900360640190fd5b6006610698565b60095460009060ff16600681111561096357fe5b905090565b6004546001546008546006805460095460009586956060958795879587958695869586956001600160a01b03928316959194600294919360039391169160ff16908111156109b257fe5b6009546005548654604080516020808402820181019092528281526101009094046001600160a01b0390811694931692918991830182828015610a1e57602002820191906000526020600020905b81546001600160a01b03168152600190910190602001808311610a00575b5050505050965084805480602002602001604051908101604052809291908181526020018280548015610a7a57602002820191906000526020600020905b81546001600160a01b03168152600190910190602001808311610a5c575b50505050509450985098509850985098509850985098509850909192939495969798565b600580546001600160a01b0319166001600160a01b0392909216919091179055565b6005546001600160a01b03828116911614610b0c5760405162461bcd60e51b8152600401808060200182810382526022815260200180610ba26022913960400191505060405180910390fd5b600680546001600160a01b0319166001600160a01b038416179055600261062a565b6040518060600160405280600390602082028036833750919291505056fe7e89c4b1a4e2b51aae84eb1f90e8a34cb792ece5ac5cb63db4830c891220b28d4f6e6c792057686f6c6573616c6572206f72204469737472696275746f722063616e2063616c6c20746869732066756e6374696f6e746869732057686f6c6573616c6572206973206e6f74204173736f6369617465642e54686973204469737472696275746f72206973206e6f74204173736f6369617465642e4f6e6c79205472616e73706f727465722063616e2063616c6c20746869732066756e6374696f6ea26469706673582212204e5b568122a9c51d10ddc031a82555f8a9b2abe9204d4087df278c1a48d1252264736f6c634300060600336080604052600060025534801561001557600080fd5b50604051610b74380380610b7483398101604081905261003491610059565b600080546001600160a01b0319166001600160a01b0392909216919091179055610087565b60006020828403121561006a578081fd5b81516001600160a01b0381168114610080578182fd5b9392505050565b610ade806100966000396000f3fe608060405234801561001057600080fd5b506004361061004c5760003560e01c806327506f53146100515780633626a3681461006f57806378ce1365146100845780639ace38c214610099575b600080fd5b6100596100bf565b60405161006691906108c3565b60405180910390f35b61008261007d3660046107bb565b6102c7565b005b61008c61050b565b6040516100669190610a87565b6100ac6100a7366004610853565b610511565b6040516100669796959493929190610990565b600254606090818167ffffffffffffffff811180156100dd57600080fd5b5060405190808252806020026020018201604052801561011757816020015b61010461066a565b8152602001906001900390816100fc5790505b50905060005b828110156102bf57600081815260016020818152604092839020835160e08101855281548152818401546001600160a01b0390811682850152600280840154909116828701526003830154606083015260048301805487516101009782161597909702600019011691909104601f81018590048502860185019096528585529094919360808601939092908301828280156101f95780601f106101ce576101008083540402835291602001916101f9565b820191906000526020600020905b8154815290600101906020018083116101dc57829003601f168201915b505050918352505060058201805460408051602060026001851615610100026000190190941693909304601f810184900484028201840190925281815293820193929183018282801561028d5780601f106102625761010080835404028352916020019161028d565b820191906000526020600020905b81548152906001019060200180831161027057829003601f168201915b505050505081526020016006820154815250508282815181106102ac57fe5b602090810291909101015260010161011d565b509150505b90565b60025442906103a6576040805160e0810182528881526001600160a01b038089166020808401918252898316848601908152606085018a8152608086018a815260a087018a905260c08701899052600280546000908152600180875299902088518155955198860180549988166001600160a01b03199a8b1617905592519285018054939096169290971691909117909355915160038201559251805192939261037792600485019201906106a5565b5060a082015180516103939160058401916020909101906106a5565b5060c082015181600601559050506104b5565b6002546000190160009081526001602052604090205484146103e35760405162461bcd60e51b81526004016103da90610a50565b60405180910390fd5b6040805160e0810182528881526001600160a01b038089166020808401918252898316848601908152606085018a8152608086018a815260a087018a905260c08701899052600280546000908152600180875299902088518155955198860180549988166001600160a01b03199a8b1617905592519285018054939096169290971691909117909355915160038201559251805192939261048a92600485019201906106a5565b5060a082015180516104a69160058401916020909101906106a5565b5060c082015181600601559050505b6002805460010190556040517f30d01d358fb0899fe4d50947b2e9301c952d9eed09b14c7ecdcbeed4434557c4906104fa90899089908990899087908a908a906109f0565b60405180910390a150505050505050565b60025481565b60016020818152600092835260409283902080548184015460028084015460038501546004860180548a516101009a8216159a909a02600019011693909304601f810188900488028901880190995288885293976001600160a01b039384169793909116959394938301828280156105ca5780601f1061059f576101008083540402835291602001916105ca565b820191906000526020600020905b8154815290600101906020018083116105ad57829003601f168201915b5050505060058301805460408051602060026001851615610100026000190190941693909304601f810184900484028201840190925281815294959493509083018282801561065a5780601f1061062f5761010080835404028352916020019161065a565b820191906000526020600020905b81548152906001019060200180831161063d57829003601f168201915b5050505050908060060154905087565b6040805160e08101825260008082526020820181905291810182905260608082018390526080820181905260a082015260c081019190915290565b828054600181600116156101000203166002900490600052602060002090601f016020900481019282601f106106e657805160ff1916838001178555610713565b82800160010185558215610713579182015b828111156107135782518255916020019190600101906106f8565b5061071f929150610723565b5090565b6102c491905b8082111561071f5760008155600101610729565b600082601f83011261074d578081fd5b813567ffffffffffffffff80821115610764578283fd5b604051601f8301601f191681016020018281118282101715610784578485fd5b60405282815292508284830160200186101561079f57600080fd5b8260208601602083013760006020848301015250505092915050565b60008060008060008060c087890312156107d3578182fd5b8635955060208701356107e581610a90565b945060408701356107f581610a90565b935060608701359250608087013567ffffffffffffffff80821115610818578384fd5b6108248a838b0161073d565b935060a0890135915080821115610839578283fd5b5061084689828a0161073d565b9150509295509295509295565b600060208284031215610864578081fd5b5035919050565b6001600160a01b03169052565b60008151808452815b8181101561089d57602081850181015186830182015201610881565b818111156108ae5782602083870101525b50601f01601f19169290920160200192915050565b60208082528251828201819052600091906040908185019080840286018301878501865b8381101561098257603f19898403018552815160e081518552888201516109108a87018261086b565b50878201516109218987018261086b565b506060808301518187015250608080830151828288015261094483880182610878565b91505060a0915081830151868203838801526109608282610878565b60c09485015197909401969096525050948701949250908601906001016108e7565b509098975050505050505050565b8781526001600160a01b038781166020830152861660408201526060810185905260e0608082018190526000906109c990830186610878565b82810360a08401526109db8186610878565b9150508260c083015298975050505050505050565b8781526001600160a01b03878116602083015286166040820152606081018590526080810184905260e060a08201819052600090610a3090830185610878565b82810360c0840152610a428185610878565b9a9950505050505050505050565b6020808252601b908201527f5472616e73616374696f6e206572726f72206f63637572726564210000000000604082015260600190565b90815260200190565b6001600160a01b0381168114610aa557600080fd5b5056fea264697066735822122027f5c5971153096749971ce0db362f7b719b6d0a3eb80fe7fdbecdfe4bdcba9e64736f6c63430006060033cfbd3a658e0a38877312e3f5767ddb0c6541620d7bd0368d43e0b94a55d9876ea26469706673582212208cf255c05a3119bb2678b367aa9767005cf7e432980d7f5fbc65b7026cc2685c64736f6c63430006060033",
  "immutableReferences": {},
  "source": "pragma solidity >=0.4.21 <0.7.0;\npragma experimental ABIEncoderV2;\n\nimport './DetailAdder.sol';\n// import './Recipient.sol';\n// import './Uniqueaddresslinker.sol';\nimport './Verify.sol';\n// import './Sender.sol';\nimport './VerifyB_CO.sol';\n// import './Banker.sol';\nimport './VerifyCO_C.sol';\n// import './Connector.sol';\n// import './Customer.sol';\n\n\n//// New verification chain : recipient -> uniqueaddresslinker -> sender -> uniqueaddresslinker -> banker -> uniqueaddresslinker -> connector -> uniqueaddresslinker -> customer/bank/\n\ncontract VerificationChain {\n    \n    address Admin;\n    \n    constructor() public {\n        Admin = msg.sender;\n    }\n    \n    modifier onlyAdmin() {\n        require(Admin == msg.sender);\n        _;\n    }\n    \n    modifier checkUser(address addr) {\n        require(addr == msg.sender);\n        _;\n    }\n    \n    enum roles {\n        noRole,\n        recipient,\n        uniqueaddresslinker,\n        sender,\n        banker,\n        connector,\n        customer\n    }\n    \n    \n    //////////////// Events ////////////////////\n    \n    event UserRegister(address indexed _address, bytes32 name);\n    event buyEvent(address client, address indexed initiator, address bundleAddr, bytes signature, uint indexed timestamp);\n    event respondEvent(address indexed client, address initiator, address bundleAddr, bytes signature, uint indexed timestamp);\n    event sendEvent(address initiator, address client, address indexed bundleAddr, bytes signature, uint indexed timestamp);\n    event receivedEvent(address indexed client, address initiator, address bundleAddr, bytes signature, uint indexed timestamp);\n    \n    \n    //////////////// Event functions (All entities) ////////////////////\n\n    \n    function requestUnique(address client, address initiator, address bundleAddr, bytes memory signature) public {\n        emit buyEvent(client, initiator, bundleAddr, signature, now);\n    }\n    \n    function respondToEntity(address client, address initiator, address bundleAddr, bytes memory signature) public {\n        emit respondEvent(client, initiator, bundleAddr, signature, now);\n    }\n    \n    function sendBundleToEntity(address client, address initiator, address bundleAddr, bytes memory signature) public {\n        emit sendEvent(initiator, client, bundleAddr, signature, now);\n    }\n    \n    /////////////// Users (Only Admin Executable) //////////////////////\n    \n    struct userData {\n        bytes32 name;\n        string[] userLoc;\n        roles role;\n        address userAddr;\n    }\n    \n    mapping (address => userData) public userInfo;\n    \n    function registerUser(bytes32 name, string[] memory loc, uint role, address _userAddr) public onlyAdmin {\n        userInfo[_userAddr].name = name;\n        userInfo[_userAddr].userLoc = loc;\n        userInfo[_userAddr].role = roles(role);\n        userInfo[_userAddr].userAddr = _userAddr;\n        \n        emit UserRegister(_userAddr, name);\n    }\n    \n    function changeUserRole(uint _role, address _addr) public onlyAdmin returns(string memory) {\n        userInfo[_addr].role = roles(_role);\n       return \"Role Updated!\";\n    }\n    \n    function getUserInfo(address _address) public view returns(\n        userData memory\n        ) {\n        return userInfo[_address];\n    }\n    \n\n    /////////////// Recipient //////////////////////\n    \n    mapping (address => address[]) public recipientDetailAdders;\n    \n    \n    function createDetailAdderBundle(\n        bytes32 _description,\n        uint _count,\n        address _uniqueaddresslinkerAddr,\n        address _senderAddr\n    ) public returns(address) {\n\n        DetailAdder detailAdder = new DetailAdder(\n            msg.sender,\n            address(bytes20(sha256(abi.encodePacked(msg.sender, now)))),\n            _description,\n            _count,\n            _uniqueaddresslinkerAddr,\n            _senderAddr\n        );\n        \n        recipientDetailAdders[msg.sender].push(address(detailAdder));\n        return address(detailAdder);\n    }\n    \n    function getNoOfBundlesOfRecipient() public view returns(uint) {\n        return recipientDetailAdders[msg.sender].length;\n    }\n    \n    \n    function getAllBundles() public view returns(address[] memory) {\n        uint len = recipientDetailAdders[msg.sender].length;\n        address[] memory ret = new address[](len);\n        for (uint i = 0; i < len; i++) {\n            ret[i] = recipientDetailAdders[msg.sender][i];\n        }\n        return ret;\n    }\n    \n    ///////////////  Uniqueaddresslinker ///////////////\n    \n    \n    function uniqueaddresslinkerHandleBundle(\n        address _addr,\n        uint uniqueaddresslinkertype,\n        address cid\n        ) public {\n            \n        require(\n            userInfo[msg.sender].role == roles.uniqueaddresslinker,\n            \"Only Uniqueaddresslinker can call this function\"\n        );\n        require(\n            uniqueaddresslinkertype > 0,\n            \"Uniqueaddresslinker Type is incorrect\"\n        );\n        \n        if(uniqueaddresslinkertype == 1) { \n            /// Recipient -> Sender\n            DetailAdder(_addr).pickBundle(msg.sender);\n        } else if(uniqueaddresslinkertype == 2) { \n            /// Sender -> Banker\n            Verify(_addr).pickVerify(msg.sender);\n        } else if(uniqueaddresslinkertype == 3) {   \n            // Banker to Connector\n            VerifyB_CO(cid).pickWD(_addr, msg.sender);\n        } else if(uniqueaddresslinkertype == 4) {   \n            // Banker to Customer\n            VerifyCO_C(cid).pickDC(_addr, msg.sender);\n        }\n    }\n    \n    \n    ///////////////  Sender ///////////////\n    \n    mapping (address => address[]) public senderDetailAdders;\n    mapping (address => address[]) public senderVerifies;\n    \n    \n    function senderReceivedBundle(\n        address _addr,\n        address _senderAddress,\n        address _initiatorAddr,\n        bytes memory signature\n        ) public {\n            \n        DetailAdder(_addr).receivedBundle(_senderAddress);\n        senderDetailAdders[_senderAddress].push(_addr);\n        emit receivedEvent(msg.sender, _initiatorAddr, _addr, signature, now);\n    }\n    \n    function getAllDetailAdders() public view returns(address[] memory) {\n        uint len = senderDetailAdders[msg.sender].length;\n        address[] memory ret = new address[](len);\n        for (uint i = 0; i < len; i++) {\n            ret[i] = senderDetailAdders[msg.sender][i];\n        }\n        return ret;\n    }\n\n    function senderCreatesVerify(\n        address _senderAddr,\n        bytes32 _description,\n        address[] memory _detailAddr,\n        uint _count,\n        address[] memory _uniqueaddresslinkerAddr\n        ) public {\n            \n\n            \n        Verify _verify = new Verify(\n            _senderAddr,\n            _description,\n            _detailAddr,\n            _count,\n            _uniqueaddresslinkerAddr\n        );\n        \n        senderVerifies[_senderAddr].push(address(_verify));\n        \n    }\n    \n    function getAllCreatedVerifies() public view returns(address[] memory) {\n        uint len = senderVerifies[msg.sender].length;\n        address[] memory ret = new address[](len);\n        for (uint i = 0; i < len; i++) {\n            ret[i] = senderVerifies[msg.sender][i];\n        }\n        return ret;\n    }\n    \n\n    /////////////  Banker  ///////////////\n\n    mapping(address => address[]) public VerifiesAtBanker;\n    mapping(address => address[]) public VerifyBtoCO;\n    mapping(address => address) public VerifyBtoCOTxContract;\n    \n    function bankerReceivedVerify(\n        address _address,\n        address _initiatorAddr,\n        bytes memory signature\n        ) public {\n        require(\n            userInfo[msg.sender].role == roles.banker,\n            \"Only Banker can call this function\"\n        );\n        \n        uint rtype = Verify(_address).receivedVerify(msg.sender);\n        VerifiesAtBanker[msg.sender].push(_address);\n        emit receivedEvent(msg.sender, _initiatorAddr, _address, signature, now);\n    }\n    \n    function carryVerifyBtoCO(\n            address _address,\n            address uniqueaddresslinker,\n            address receiver\n        ) public {\n            \n        VerifyB_CO wd = new VerifyB_CO(\n            _address,\n            msg.sender,\n            uniqueaddresslinker,\n            receiver\n        );\n        VerifyBtoCO[msg.sender].push(address(wd));\n        VerifyBtoCOTxContract[_address] = address(wd);\n    }\n\n    \n    function getBunchIdByIndexWD(uint index) public view returns(address bundleID) {\n        require(\n            userInfo[msg.sender].role == roles.banker,\n            \"Only Banker Can call this function.\"\n        );\n        return VerifyBtoCO[msg.sender][index];\n    }\n\n    function getSubContractWD(address _address) public view returns (address SubContractWD) {\n        return VerifyBtoCOTxContract[_address];\n    }\n    \n    function getAllVerifiesAtBanker() public view returns(address[] memory) {\n        uint len = VerifiesAtBanker[msg.sender].length;\n        address[] memory ret = new address[](len);\n        for (uint i = 0; i < len; i++) {\n            ret[i] = VerifiesAtBanker[msg.sender][i];\n        }\n        return ret;\n    }\n\n\n//     ///////////////  Connector  ///////////////\n\n    mapping(address => address[]) public VerifiesAtConnector;\n    mapping(address => address[]) public VerifyCOtoC;\n    mapping(address => address) public VerifyCOtoCTxContract;\n\n\n    function connectorReceivedVerify(\n      address _address,\n      address cid,\n      address _initiatorAddr,\n      bytes memory signature\n    ) public {\n        require(\n            userInfo[msg.sender].role == roles.connector &&\n            msg.sender == Verify(_address).getWDC()[1],\n            \"Only Connector or current admin of bundle can call this function\"  \n        );\n        \n        uint rtype = Verify(_address).receivedVerify(msg.sender);\n        if(rtype == 2){\n            VerifiesAtConnector[msg.sender].push(_address);\n            if(Verify(_address).getWDC()[0] != address(0)){\n                VerifyB_CO(cid).receiveBD(_address, msg.sender);\n            }\n        }\n        emit receivedEvent(msg.sender, _initiatorAddr, _address, signature, now);\n    }\n\n    function connectorCarryVerifytoCustomer(\n        address _address,\n        address uniqueaddresslinker,\n        address receiver\n    ) public {\n        require(\n            userInfo[msg.sender].role == roles.connector &&\n            msg.sender == Verify(_address).getWDC()[1],\n            \"Only Connector or current admin of bundle can call this function\"\n        );\n        VerifyCO_C dp = new VerifyCO_C(\n            _address,\n            msg.sender,\n            uniqueaddresslinker,\n            receiver\n        );\n        VerifyCOtoC[msg.sender].push(address(dp));\n        VerifyCOtoCTxContract[_address] = address(dp);\n    }\n    \n    function getBunchesCountDC() public view returns (uint count){\n        require(\n            userInfo[msg.sender].role == roles.connector,\n            \"Only Connector Can call this function.\"\n        );\n        return VerifyCOtoC[msg.sender].length;\n    }\n\n    function getBunchIdByIndexDC(uint index) public view returns(address bundleID) {\n        require(\n            userInfo[msg.sender].role == roles.connector,\n            \"Only Connector Can call this function.\"\n        );\n        return VerifyCOtoC[msg.sender][index];\n    }\n\n    function getSubContractDC(address _address) public view returns (address SubContractDP) {\n        return VerifyCOtoCTxContract[_address];\n    }\n    \n    function getAllVerifiesAtConnector() public view returns(address[] memory) {\n        uint len = VerifiesAtConnector[msg.sender].length;\n        address[] memory ret = new address[](len);\n        for (uint i = 0; i < len; i++) {\n            ret[i] = VerifiesAtConnector[msg.sender][i];\n        }\n        return ret;\n    }\n    \n    \n//     ///////////////  Customer  ///////////////\n    \n    \n//     function customerReceivedVerify(\n//         address _address,\n//         address cid\n//     ) public {\n//         require(\n//             userInfo[msg.sender].role == roles.customer,\n//             \"Only Customer Can call this function.\"\n//         );\n//         verifyRecievedAtCustomer(_address, cid);\n//     }\n\n//     function updateStatus(\n//         address _address,\n//         uint Status\n//     ) public {\n//         require(\n//             userInfo[msg.sender].role == roles.customer &&\n//             msg.sender == Verify(_address).getWDC()[2],\n//             \"Only Customer or current admin of bundle can call this function\"\n//         );\n//         require(verifying[_address] == verifyingtatus(1), \"Verify Must be at Customer\");\n        \n//         updateVerifyingStatus(_address, Status);\n//     }\n\n//     function getVerifyingInfo(\n//         address _address\n//     ) public\n//     view\n//     returns(\n//         uint Status \n//     ){\n//         return verifyingInfo(_address);\n//     }\n\n    \n//     function getBunchesCountC() public view returns(uint count) {\n//         require(\n//             userInfo[msg.sender].role == roles.customer,\n//             \"Only Banker or current admin of bundle can call this function\"\n//         );\n//         return  VerifyBunchAtCustomer[msg.sender].length;\n//     }\n\n//     function getBunchIdByIndexC(uint index) public view returns(address _address) {\n//         require(\n//             userInfo[msg.sender].role == roles.customer,\n//             \"Only Banker or current admin of bundle can call this function\"\n//         );\n//         return VerifyBunchAtCustomer[msg.sender][index];\n//     }\n    \n    function verify(address p, bytes32 hash, uint8 v, bytes32 r, bytes32 s) public pure returns(bool) {\n        return ecrecover(hash, v, r, s) == p;\n    }   \n}\n    ",
  "sourcePath": "C:\\Users\\lenovo\\Documents\\Account-Verifier1\\Account-Verifier1\\Account-Verifier\\testing\\Testing.sol",
  "compiler": {
    "name": "solc",
    "version": "0.6.6+commit.6c089d02.Emscripten.clang"
  },
  "schemaVersion": "3.4.16",
  "updatedAt": "2024-04-06T20:47:02.392Z",
  "networkType": "ethereum",
  "devdoc": {
    "methods": {}
  },
  "userdoc": {
    "methods": {
      "requestUnique(address,address,address,bytes)": {
        "notice": "///////////// Event functions (All entities) ////////////////////"
      },
      "uniqueaddresslinkerHandleBundle(address,uint256,address)": {
        "notice": "////////////  Uniqueaddresslinker ///////////////"
      }
    },
    "notice": "/ New verification chain : recipient -> uniqueaddresslinker -> sender -> uniqueaddresslinker -> banker -> uniqueaddresslinker -> connector -> uniqueaddresslinker -> customer/bank/"
  }
}