{
  "contractName": "VerifyB_CO",
  "abi": [
    {
      "inputs": [
        {
          "internalType": "address",
          "name": "_address",
          "type": "address"
        },
        {
          "internalType": "address",
          "name": "Sender",
          "type": "address"
        },
        {
          "internalType": "address",
          "name": "Uniqueaddresslinker",
          "type": "address"
        },
        {
          "internalType": "address",
          "name": "Receiver",
          "type": "address"
        }
      ],
      "stateMutability": "nonpayable",
      "type": "constructor"
    },
    {
      "inputs": [
        {
          "internalType": "address",
          "name": "_address",
          "type": "address"
        },
        {
          "internalType": "address",
          "name": "_uniqueaddresslinker",
          "type": "address"
        }
      ],
      "name": "pickBD",
      "outputs": [],
      "stateMutability": "nonpayable",
      "type": "function"
    },
    {
      "inputs": [
        {
          "internalType": "address",
          "name": "_address",
          "type": "address"
        },
        {
          "internalType": "address",
          "name": "Receiver",
          "type": "address"
        }
      ],
      "name": "receiveBD",
      "outputs": [],
      "stateMutability": "nonpayable",
      "type": "function"
    },
    {
      "inputs": [],
      "name": "getBunchIDStatus",
      "outputs": [
        {
          "internalType": "uint256",
          "name": "",
          "type": "uint256"
        }
      ],
      "stateMutability": "view",
      "type": "function"
    }
  ],
  "bytecode": "0x608060405234801561001057600080fd5b506040516103b83803806103b88339818101604052608081101561003357600080fd5b50805160208201516040830151606090930151600080546001600160a01b03199081166001600160a01b03948516908117835560018054831696861696909617909555600280548216909517909455600380548516958416959095179094556004805490931691161760ff60a01b191690556103039081906100b590396000f3fe608060405234801561001057600080fd5b50600436106100415760003560e01c8063443c28d814610046578063d2f3fcc714610076578063d7dcbe3b14610090575b600080fd5b6100746004803603604081101561005c57600080fd5b506001600160a01b03813581169160200135166100be565b005b61007e610190565b60408051918252519081900360200190f35b610074600480360360408110156100a657600080fd5b506001600160a01b03813581169160200135166101b0565b6003546001600160a01b0382811691161461010a5760405162461bcd60e51b815260040180806020018281038252602f81526020018061029f602f913960400191505060405180910390fd5b6004805460ff60a01b1916600160a01b178082556002546040805163f5c0e38360e01b81526001600160a01b03938416948101949094529082166024840152519084169163f5c0e38391604480830192600092919082900301818387803b15801561017457600080fd5b505af1158015610188573d6000803e3d6000fd5b505050505050565b600454600090600160a01b900460ff1660028111156101ab57fe5b905090565b6004546001600160a01b038281169116146101fc5760405162461bcd60e51b815260040180806020018281038252603081526020018061026f6030913960400191505060405180910390fd5b600480546002919060ff60a01b1916600160a01b830217905550816001600160a01b03166393a668b7826040518263ffffffff1660e01b815260040180826001600160a01b03166001600160a01b03168152602001915050600060405180830381600087803b15801561017457600080fdfe4f6e6c79204173736f6369617465642072656365697665722063616e2063616c6c20746869732066756e6374696f6e2e4f6e6c79204173736f63696174656420736869707065722063616e2063616c6c20746869732066756e6374696f6e2ea264697066735822122007b3fd7384271c4106f88fb06ce6253eec015219343e39e6d12b1d994b8ca05a64736f6c63430006060033",
  "immutableReferences": {},
  "source": "pragma solidity ^0.6.6;\n\nimport './Verify.sol';\n\ncontract VerifyB_CO {\n\n    address Admin;\n\n    enum bundleStatus { atcreator, gathered, sent }\n\n    address veriId;\n    address sender;\n    address uniqueaddresslinker;\n    address receiver;\n    bundleStatus status;\n\n    constructor(\n        address _address,\n        address Sender,\n        address Uniqueaddresslinker,\n        address Receiver\n    ) public {\n        Admin = Sender;\n        veriId = _address;\n        sender = Sender;\n        uniqueaddresslinker = Uniqueaddresslinker;\n        receiver = Receiver;\n        status = bundleStatus(0);\n    }\n\n\n    function pickBD(\n        address _address,\n        address _uniqueaddresslinker\n    ) public {\n        require(\n            uniqueaddresslinker == _uniqueaddresslinker,\n            \"Only Associated loader can call this function.\"\n        );\n        status = bundleStatus(1);\n\n        Verify(_address).sendBtoCO(\n            receiver,\n            sender\n        );\n    }\n\n    function receiveBCO(\n        address _address,\n        address Receiver\n    ) public {\n        require(\n            Receiver == receiver,\n            \"Only Associated receiver can call this function.\"\n        );\n        status = bundleStatus(2);\n\n        Verify(_address).receivedBtoCO(\n            Receiver\n        );\n    }\n\n    function getBunchIDStatus() public view returns(\n        uint\n    ) {\n        return uint(status);\n    }\n\n}",
  "sourcePath": "C:\\Users\\lenovo\\Documents\\Account-Verifier1\\Account-Verifier1\\Account-Verifier\\testing\\VerifyB_CO.sol",
  "compiler": {
    "name": "solc",
    "version": "0.6.6+commit.6c089d02.Emscripten.clang"
  },
  "schemaVersion": "3.4.16",
  "updatedAt": "2024-04-06T20:46:46.345Z",
  "devdoc": {
    "methods": {}
  },
  "userdoc": {
    "methods": {}
  }
}